:020000040800F2
:10000000F0490020914A0008814800088348000810
:10001000854800088748000889480008000000005B
:10002000000000000000000000000000254800085B
:100030008B48000800000000CD4700088D480008EC
:10004000C14A0008C54A0008C94A0008CD4A00084C
:10005000D14A0008D54A0008D94A0008DD4A0008FC
:10006000E14A0008E54A0008E94A0008ED4A0008AC
:10007000F14A0008F54A00089B480008A14800081A
:10008000F94A0008FD4A0008014B0008054B00082A
:10009000094B00080D4B0008114B0008154B0008D8
:1000A000194B0008A7480008B94800081D4B000874
:1000B000214B0008254B0008294B00082D4B000858
:1000C000314B0008354B0008394B00083D4B000808
:1000D000414B0008454B0008494B0008CB4800083D
:1000E0004D4B0008514B0008554B0008594B000878
:1000F0005D4B0008614B0008654B0008694B000828
:100100006D4B0008714B0008754B0008794B0008D7
:100110007D4B0008814B0008D1480008854B000842
:10012000894B00088D4B0008914B0008954B000847
:10013000994B000800000000000000009D4B0008E3
:10014000A14B0008A54B0008A94B0008AD4B0008C7
:10015000B14B0008B54B0008B94B0008BD4B000877
:10016000C14B0008C54B0008C94B0008CD4B000827
:10017000D14B0008D54B0008D94B00080000000007
:1001800000000000DD4B000800000000000000003F
:10019000E14B00080000000000000000E54B0008F3
:1001A000000000000000000000000000E94B000813
:1001B000ED4B0008F14B0008F54B0008F94B000827
:1001C000FD4B00089FED1C0B9FED1D1B11B101297C
:1001D00017D070474FF4FA61C16580ED0A1B1421F6
:1001E000016680ED0C0B0021416680ED061B642149
:1001F00080ED121B80ED021B81650022DFF83C3C84
:1002000016E04FF4FA71C16580ED0A1B002101660A
:1002100080ED0C0B3221416680ED061B80ED121B38
:1002200080ED021B0022DFF8181CDFF8683C8165B6
:10023000C0E91423704700000000000000407F4028
:10024000000000000000000070B506462DED088B90
:1002500086ED001B86ED080BD6E90801D6E90023E0
:1002600001F010F941EC190B86ED049BD6E90A2345
:1002700001F07AF9D6E9062341EC1A0B51EC190B7F
:1002800001F000F996ED0C8B53EC182B41EC1B0B95
:100290000020002101F024FA86ED0EBB09D000F009
:1002A00053F802D300F056F803D2B0EE48AAF0EEAD
:1002B00068AAF06D86ED0AAB01F022FA53EC192B17
:1002C00001F030FA0446306E0D4601F019FAD6E915
:1002D0000A2301F027FA22462B4601F045F904468D
:1002E000706E0D4601F00CFA01F065F822462B46BF
:1002F00001F03AF941EC180BB06D86ED108B00B3AC
:1003000001F0FEF902460B4651EC180B01F0DCFA45
:1003100041EC1A0B96ED148B53EC182B00200021A6
:1003200001F0DEF986ED069B09D000F00DF802D34E
:1003300000F010F803D2B0EE48AAF0EE68AA86EDFD
:1003400010ABBDEC088B70BD51EC180B53EC1A2BA5
:1003500001F0DEBB81F0004141EC180B51EC1A0BAF
:1003600053EC182B01F0D4BB2DE9F04F8BB001F00A
:10037000E7FB00F00FFA00F0B3FA00200090002233
:10038000DFF8140BDFF8144B0168DFF8145B41F45D
:10039000001101600521006800F400100090009831
:1003A0000E2001F003FC0E2001F01DFC00220521AF
:1003B0000F2001F0FBFB0F2001F015FCDFF8E40A31
:1003C00020604FF4827060600020A060E0602061D7
:1003D00060614FF40070A0610020E0612062606203
:1003E000A0620A20E062204601F028FC00F01FFA1B
:1003F00000F0BAF90FF228300021D0E900674FF081
:100400008040286000206860A8602861A8610320FF
:10041000029001200490052006900120CDE900679C
:100420000890039105200591079109910A904FF6D4
:10043000FF77EF6002A9284601F030FE00F04BFA8A
:10044000284602F0FFF800F08FF90FF2DC20DFF809
:10045000581AD0E9002300206864A8642865A865BC
:10046000296400F085F9EF6402A905F1400001F06C
:1004700015FE00F030FA05F1400002F0E3F802A8A2
:1004800005F18406242102F035F90FF2A420DFF8EB
:100490001C1ADFF81C9AD0E900230020306070603D
:1004A000F0607061C5F8801000F062F905F1800B12
:1004B000B76002A9584601F0F1FD00F00CFA584669
:1004C00002F0C0F800F050F90FF26C22DFF8E439C6
:1004D000D2E90001CDE90001F363002030647064CB
:1004E000F0647065002103200290039101200490C4
:1004F000059105200690079101200890099105209B
:100500000A9005F1C00AB76402A9504601F0C6FD81
:1005100000F0E1F9504602F095F805F58277DFF832
:10052000B40BF86305F5C27859203864002078646C
:100530006320B8640020F864786505F5A070019028
:1005400001F044FDDFF8900BF8671120C8F80000B7
:100550000020C8F8040042F20F70C8F8080000201C
:10056000C8F80C00C8F8140005F5C070009001F040
:100570002DFDDFF89C0BC9F824004FF4E130C9F8D9
:1005800028000020C9F82C00C9F83000C9F8340050
:100590000C20C9F838000020C9F83C00C9F8400018
:1005A00009F1240002F0AAF865A2DFF8683BD2E95D
:1005B0000001CDE9020159203860F367002078601E
:1005C00005F580760920B86000207861304601F09A
:1005D000FDFC00200290039002A9304602F032F8A0
:1005E000304601F000FD0198DFF82C6B01F0FBFCB8
:1005F000002100F0B6F8002100F0B0F8042100F06E
:10060000B0F8042100F0AAF8082100F0AAF80821A7
:1006100000F0A4F80C2100F0A4F80C2100F09EF8E2
:100620000021284601F084FD0421284601F080FDC8
:10063000002105F1400001F07BFD042105F140009F
:1006400001F076FD0021584601F072FD0421584664
:1006500001F06EFD0021504601F06AFD0421504674
:1006600001F066FDD9F82400DFF8B05AC16841F006
:100670002001C1600022C16841F04001C160022137
:10068000DFF89C0A02F06EFB01224FF48051DFF884
:10069000900C02F067FB012209F1200109F124000E
:1006A00002F088F81A22494609F1240002F062F8A3
:1006B0000020C9F8740000212846FFF783FD0121BE
:1006C00005F16800FFF77EFD002105F59C70FFF73E
:1006D00079FD012105F5D070FFF774FD009801F058
:1006E00082FC204601F0AAFA042309F17C0209F1F8
:1006F0001C01204601F0E5FA204601F06DFB0128BF
:10070000FAD1684610A1142202F048FB0021684685
:1007100002F093FBC8F83C0002F08AFBFEE7000001
:1007200000000000000000000000000000000000C9
:1007300000000000000000000000000000000000B9
:100740000000000000000000A04A00082911000875
:10075000000000000000000080000000304601F0B2
:100760003DBF304601F076BC02A8242101F0C2BF93
:100770000320029000210120049005200690012012
:100780000890CDE900230520039105910791099177
:100790000A90704700B593B006A8342101F0AAFF73
:1007A00001A8142101F0A6FF00200090DFF87409D1
:1007B000016841F0805101600021006800F0805024
:1007C00000900098DFF8C40B00910121026842F408
:1007D000404202604FF48032006800F440400090D4
:1007E0000098069102200C904FF4800108200E9092
:1007F0000D910220B42110901190129007920F9148
:1008000006A802F076FB02F001FD0F200190022104
:100810000020029103904FF4A0514FF480500491B6
:100820000590052101A802F02DFD13B000BD18B5FB
:100830000FF6A831DFF8E048D1E9002391B002A813
:10084000CDE900231C2101F055FF09A8202101F06A
:1008500051FFDFF83C0B2060B32060600020A060F7
:1008600042F20F70E060002020616061A0612046CC
:1008700001F0E3FB00F02FF8204601F0E3FE6020DA
:10088000002102900391049105910691079108912E
:10089000002200F01CF8042200F019F8082200F0F1
:1008A00016F80C2200F013F800204FF400510990C4
:1008B0000A900B900C900D900E91109009A9204673
:1008C00001F0DFFE204602F006FF12B010BD02A9C3
:1008D000204601F0EABC0020009001906946704774
:1008E00070B586B06846142101F004FF0024DFF8DB
:1008F000A805DFF82C58DFF8186A05940168DFF8BE
:10090000204A41F080010160026802F080020592F5
:10091000002205990592036843F00403036001680F
:1009200001F00401059105990592036843F0010364
:100930000360016801F001010591059905920E21FE
:10094000036843F002030360006800F002000590B2
:10095000059800F0FCF90022D821284602F002FA9E
:1009600000224FF49851304602F0FCF9012000219A
:100970000090019102912046694602F019F90E207B
:1009800000F01BF8204602F013F92420002100900B
:10099000019102912846694602F00AF9D82000F038
:1009A0000CF8284602F004F94FF4985000F005F8CE
:1009B000304602F0FDF806B070BD00900121002025
:1009C000019102900390694670477CB5DFF8E044DE
:1009D000012204F1200104F1240001F0EBFEDFF814
:1009E000340994F820100278666F8B180D461EB1FA
:1009F000022E0BD004D32CE0FF2D2AD1012102E0DE
:100A0000AA2D26D102216167037022E046681C2EC0
:100A100018DB8A4211D10021DFF8FC2800F108051B
:100A200009E000F1080353F8213042F82130002397
:100A300045F82130491CB142F3DB002141600170CF
:100A4000616706E000F1080141F82650761C03704A
:100A500046600020A06773BD10B5DFF8DC184A6E51
:100A6000FF2008706424AA2048704FF47A70B2FB0B
:100A7000F0F38B7000FB1323B3FBF4F3CB7000F0A7
:100A80001BFA0C71B2FBF3F300FB13224A711A221A
:100A9000BDE8104001F1240001F06CBE10B5DFF894
:100AA0001004816F42F21172491C914281670BDB85
:100AB000002180F8201070220FF62811DFF8580866
:100AC00002F06CF9012400E00024DFF85008047102
:100AD00010BD000070B5DFF84008DFF84048416EF7
:100AE000012904BF0120A070606AA56A042803D907
:100AF000A0F5B27104290DD2042D03D9A5F5B27267
:100B0000042A07D29FED9A0B012184ED100B84ED8E
:100B1000120B2166A278012A04BF2178002919D17D
:100B20003226B428A8BFA0F5B470704300F0E8FDE9
:100B3000C4E91401B42D04DBC5F5B475754328462A
:100B400002E06FF03100684300F0DAFDC4E91601FD
:100B50000120207070BDF8B52DED028B82B001210F
:100B6000DFF8BC07DFF8B44702F0F6F8217AE0714D
:100B7000002908BF012804D1A1794A1E9241D20F51
:100B8000A271207241F28831DFF88C57E86B00289F
:100B900040F08B800022E270286E012817D1A279E4
:100BA000012A05D1E16021616161A16100200CE0B1
:100BB000A86DC0EB001000F6AC50E060E86DC0EB33
:100BC000001000F6AC5020610120607171E062718C
:100BD00040F2EE26E86E4643666600F091FD002284
:100BE000DFF8403700F09EFD0022DFF8A83700F064
:100BF000BBFC81F0004141EC180B84ED0C8B40F6FE
:100C0000AC5141F66417A86E891BBA19F8B9AB6CE0
:100C1000C82B2AD0E86CC82849D02B6DC82B26D009
:100C2000686DC8281FD0686800F06AFD00F045F8BC
:100C300002F0FAFD30183818E060E86800F060FD56
:100C400000F03BF802F0F0FD3618BE192BE0A86C5E
:100C5000C8282CD0EB6CC82B07D0286DC82806D02C
:100C60006B6DC82B06D1E26022E0E26000E0E1603B
:100C700022611EE0686800F043FD00F01EF881F07C
:100C8000004102F0D1FD00F6AC50801BE060E86846
:100C900000F036FD00F011F881F0004102F0C4FDD3
:100CA00000F6AC50861B266103E00120E070E16095
:100CB000216102B0BDEC028BF1BD53EC182B00F0AA
:100CC00031BD38B5FFF747FFDFF84C56DFF84C462B
:100CD00028693221484300F013FDC4E91401686912
:100CE0006FF03101484300F00BFDC4E9160131BD3E
:100CF00038B5DFF82856DFF82846687900280CBF99
:100D000000220122022100F022F8287900280CBFDD
:100D100000220122042100F01AF8E87808B9002224
:100D200003E06878401C687001222046BDE8384026
:100D3000082102F017B810B5DFF8E443002200F0F4
:100D400005F82046BDE8104000220DE008212046AD
:100D500002F008B810B5DFF8C8430122FFF7F6FF2C
:100D60002046BDE810400122402101F0FBBF0000F9
:100D70000000000000000000F0B5DFF8B005DFF86B
:100D80009C15D0F89420CB6900EB8204E36400F159
:100D900070040B6A44F82230521C092AA8BF0022B2
:100DA000C0F89420002200F14C03041D53F82230B7
:100DB00044F8223000F1280400F1700353F8223087
:100DC00044F82230521C092AEDDB0023071D5A1C6F
:100DD00014460BE000F03FF8B54206DA00F03BF8AD
:100DE00047F82360061D46F82450641C092CF1DBEB
:100DF0001346092BEBDB002300F128075A1C14468D
:100E00000CE000F01FF8B54207DA00F01BF847F8D5
:100E1000236000F1280646F82450641C092CF0DBFE
:100E20001346092BEADB0278042A03DD43694B628F
:100E3000836B8B62521C0270F0BD00000040AF401B
:100E4000A086010000F1280500F1280655F823507E
:100E500056F824607047051D061D55F8235056F8B6
:100E60002460704710B5DFF8D0144A6E4FF47A70E2
:100E7000B2FBF0F3CB77642400FB1323B3FBF4F352
:100E80008B7700F019F8B2FBF3F34C7700FB1322D9
:100E90000A7710BD00003E40303802402045002057
:100EA0009840002000380040000400400008004046
:100EB00068000020000C00400A206423B2FBF3F31A
:100EC00004FB13230A24B3FBF4F40A2370472DE92F
:100ED000F84306468F493068DFF84044DFF8505445
:100EE00088421FD1E968686ADFF8349242F21177CC
:100EF00043F69928B8B101281CD002281ED0032837
:100F00002AD0042842D0642862D065286FD0662891
:100F10007AD0C82800F08280C92800F08E80CA28C4
:100F200000F09880A0E0A862E8602861FFF703FF66
:100F3000012098E0FFF70EFF022094E004214846CC
:100F400001F00AFF28702021484601F005FF687073
:100F5000FFF7F1FE032086E0AB6A28780FF2F44732
:100F600018B157F823205118E960687820B1296931
:100F700057F8230041182961FFF7ECFEA86A401CCE
:100F8000A8620C28ACBF042002206CE02E696961C5
:100F9000AE61084600F0B4FB00F098F802F044FCA3
:100FA000E061304600F0ACFB00F090F80022DFF882
:100FB000843300F0D9FA02F037FC40422062E86A3C
:100FC000411C7928E9627CDB0020E862686278E0F5
:100FD0000022082100F077F800F085F86868411CCD
:100FE000B842696040DB0020686065203BE0012278
:100FF000102100F068F86868411C4045696033DBE7
:101000000020686066202EE000F06DF86868411CE2
:101010006528696028DB0020686024E00022402108
:1010200000F051F800F05AF8A868411CB842A960D5
:101030001ADB0020A860C92015E00122802100F001
:1010400042F8A868411C4045A9600DDB0020A8605B
:10105000CA2008E000F042F8A868411C6528A96091
:1010600002DB0020A860686230681A49884210D10B
:10107000E969491CE961FFF711FDFFF77DFEFFF704
:1010800037FE206E012804D0E9690B29A8BFFFF7BD
:1010900021FD30681049884213D1FFF7E3FE00229A
:1010A0004FF480519A4801F05DFEA34800F17C02A4
:1010B00000F11C010423A24800F003FE286A401C32
:1010C0002862BDE8F183484601F04CBE9B4AB24B12
:1010D00000F0FABB0044014000480140002280219A
:1010E000484601F03FBE00221021484601F03ABEBA
:1010F000934900680A68904208D1886D401C886551
:1011000001224FF48051824801F02CBE704700004C
:1011100000480040001000407C450020283E002090
:1011200000000240403802402DE9F84F2DED0E8BB3
:1011300084B0DFF81082DFF810A2DFF81092844D3F
:10114000764E844F08F5D07003909FED838B08F5A1
:10115000BC7001909FED829B08F59C7002909FED02
:1011600082AB08F1400000909FED81BB4EF6612BF1
:101170009FED81CB9FED82DB8EE000F020F900F047
:101180001AF9C7E9060100F01AF953EC1E2B00F01A
:10119000EBF900F008F9C7E9040186ED10EBFC68F3
:1011A00096ED12EB5C4504DB04F17F4404F57F040B
:1011B0007C6500F004F900F0FEF8C7E90C0100F0CE
:1011C000FEF853EC1E2B00F0CFF900F0ECF8C7E965
:1011D0000A0186ED12EB404697ED041B96ED140BC9
:1011E000FFF732F8009897ED061B90ED000B08F121
:1011F0006800FFF729F8029897ED0A1B96ED160B89
:10120000FFF722F8019897ED0C1B90ED000B039867
:10121000FFF71AF800F0DAF800F0D4F802F004FB57
:10122000A860019800F0D3F800F0CCF802F0FCFAC6
:10123000E86000F0CBF800F0C5F802F0F5FA706154
:10124000019800F0C4F800F0BDF802F0EDFAB061CA
:101250000022D7E906014C4B00F036FB53EC1D2B66
:1012600000F060FA02F0E0FA78640022D7E90C019D
:10127000454B00F029FB53EC1D2B00F053FA02F014
:10128000D3FAB864D7E9040102F0CEFA00F086F888
:10129000F8650A2001F0E8FD386C401C3864FFF75F
:1012A0005AFC306E08B1FFF70CFDF0682860306919
:1012B00068607069A860B069E860D7E9040102F06D
:1012C000B3FA00F06BF8F865F86C00F019FA002238
:1012D000154B00F0F9FA53EC1C2B00F023FAC6E989
:1012E0000E01D9F80000B8600020C9F80000DAF853
:1012F0000000F8600020CAF80000BC6896ED10EB12
:101300005C4504DB04F17F4404F57F043C6534E76D
:101310000004024088430020E80000200000002074
:101320000008024000001E4000004E40580100200E
:10133000BC450020008076C068000020E1D1C611C5
:1013400020450020283E00202400004024040040C6
:1013500034000140C0440020000000000088B34079
:1013600000000000000059C0000000000080A63FFF
:101370000000000000941140000000000080764052
:101380000000000000004E400080764000700040E9
:101390000000014000002E406BC12640B865D7E92F
:1013A0000A0102F041BA41EC1E0B53EC1E2B51EC2A
:1013B0001A0B00F0B7B953EC1B2B00F0B3B9204661
:1013C00000F09EB953EC182B00F0CEB80098D0E98D
:1013D0001A2351EC190B00F0A5B97047000000006A
:1013E00000000000640000006400000064000000D1
:1013F0006400000000000000000000000000000089
:1014000000000000000000000000000000000000DC
:1014100000000000000000000000000000000000CC
:101420000000000064000000640000006400000090
:10143000640000006400000064000000640000001C
:101440006400000000000000000000000000000038
:10145000000000000008000000040000000200007E
:10146000000100008000000040000000200000009B
:10147000100000000800000004000000020000004E
:101480000100000070B44FF0004591EA030F40F1F5
:1014900073806B40841A71EB030603D2001BB141C9
:1014A000121973414FF4001C1CEB410F34BF7CEB4D
:1014B000430442E00C0DA4EB1356352E4FDC45EAF5
:1014C000C323DB0A45EAC121C912B6F120050DDDAF
:1014D00063FA05F6EB4086EA0305124218BF45F0B1
:1014E0000105C01851F100010CD213E062FA06F5B3
:1014F000F2405540F3415A40B340F3405A408018FF
:10150000594107D349085FEA30005FEA350528BF33
:1015100045F0010501F58011420875F1004250F1D6
:10152000000041EB04514E0016F5001F70BC38BF9F
:1015300070470020090D090570471CEB410F10D2C0
:1015400052EA43060BD0BCEB410F05D80C0DAB4360
:10155000661E342EB6DD02E0AB438018594170BCE4
:10156000704770BC7047000070B44FF0004591EABE
:10157000030F7FF58FAF6B40841A71EB030604D223
:101580006E40001BB141121973414FF4001C1CEB5B
:10159000410F34BF7CEB430682E00C0DA4EB1356E5
:1015A000362E7BDC012E45EAC32341DC43EA52534D
:1015B00012BFD20292025B08240545EAC12141EA2A
:1015C0005051D2EBC020994125D407D1B0FA80F612
:1015D00010FA06F162D00020203608E0B1FA81F658
:1015E000B140C6F1200220FA02F21143B0404FEAA6
:1015F000F474B4EB465434F001064FEA74040AD88C
:10160000D6F50016760D04F00044F04061FA06F2BB
:101610005040F1404840C00A40EA415021F00041AA
:1016200028BF5FEA500550F1000044EBD12135E0BE
:10163000DB0A45EAC121C90AB6F120050EDD42EAFE
:101640000242120CC5F1200603FA06F6EB4042EA0C
:1016500006056D42984161F100010DE062FA06F560
:10166000F240554063FA06FC82EA0C02F3405A400D
:101670006D42904161EB030111F4801F05D1641E9E
:10168000620502D06D004041494121F480114308B8
:1016900075F1004350F1000041EB045170BC7047FC
:1016A0001CEB410F15D223F0004352EA43060BD046
:1016B0004FEA4C0CBCEB410F04D80C0D661E342EC7
:1016C000B7DDEBE7801A994150EA410608BF0021D7
:1016D000E4E708BF1CEB430F28BF6FF00001DDE714
:1016E00090420CD141EA030C50EA4C0C07D09942CD
:1016F00005D14FF4001C1CEB410F38BF89427047E5
:10170000C11768B14840401AB0FA80F29040D21C2C
:10171000C907C2F5846241EA025202EBD0214005BA
:1017200070470000B0B581EA030C0CF0004C40F2A9
:10173000FF7515EA11541DBF15EA1357AC42AF42AD
:1017400039E0E41923EA455343F48013C90241F018
:10175000004141EA505EC7021100A7FB02020028C7
:101760004FF00000EEFB01204FF00001E3FB0721EA
:1017700018BF42F00102401800214941E3FB0E016D
:10178000A4F580640F0302D252004041494154F154
:1017900001046CDD470872F1004250F1000051EB8A
:1017A0000451A1F580115CBF41EA0C01B0BD4CEAC7
:1017B00005510020B0BD05EA1357AC4214BFAF423B
:1017C00041E050EA410E1CBF52EA430E02E061467E
:1017D0000020B0BD24423C441BD15FEA070EF6D086
:1017E000090302BF01460020AEF1140EB1FA81F7E1
:1017F000AEEB070401FA07FE0C37C7F1200100FA2F
:1018000007F7C8404EEA000E23EA455343F480131D
:10181000A2E733F00043B3FA83F704BFB2FA82FEC3
:1018200077440B3FE41BB7F1200E2FBF02FA0EF3F3
:10183000BB40C7F1200E22FA0EFE38BF43EA0E036A
:10184000BA40641C82E750EA410E14BF52EA430ECC
:101850006FF000014FF4001717EB430F8ABF1946D2
:1018600017EB410FB5E74CEA05510020B0BDD4F1AC
:101870000104B4F120070FDAC4F12007520828BF91
:1018800042F0010210FA07F501FA07F7E1BF2A4317
:10189000E0403843E1400FE0352C98DCC7F12004EC
:1018A00052EA400220FA07F218BF42F0010231FA70
:1018B00007F0A1400A43002172F1004250F10000FC
:1018C00051EB0C01B0BD0000F0B540F2FF7581EAAC
:1018D000030C0CF0004C15EA11541DBF15EA135708
:1018E000AC42AF42E5E0BC41C1F31301C3F31303C3
:1018F000801A994143F4801304D2641E4000494188
:1019000080185941C90241EA5051B1FBF3F603FB7B
:101910001611A2FB0675D7EBC020A94102D2761E94
:1019200080185941C90241EA5051B1FBF3FE03FB53
:101930001E11A2FB0E75D7EBC020A94103D2AEF158
:10194000010E80185941890241EA9051760546EA14
:101950008E2EB1FBF3F603FB1611A2FB0675D7EB37
:101960008020A94102D2761E80185941C90241EA5D
:1019700050514EEA060EB1FBF3F603FB1611A2FB23
:101980000675D7EBC020A94102D2761E80185941B6
:10199000C90241EA5051B1FBF3F703FB1711A2FB57
:1019A0000735D3EBC020A94167F100070CBF004207
:1019B00047F0010766F3D5274FEA1E31B80814F542
:1019C000806412DDBD0775F1004250EB0E5051EB03
:1019D000045111F5801F5CBF41EA0C01F0BD4CF0D1
:1019E0007F6141F0E0410020F0BDBD076D0840EA95
:1019F0000E5041F48011D4F10104B4F120060ADA4A
:101A0000C4F120060200E04001FA06F3E140184369
:101A1000B24015430EE0342C13DCC6F1200445EA35
:101A200040056D0820FA06F2154321FA06F0A140A0
:101A30000D43002175F1004250F1000051EB0C0103
:101A4000F0BD00205FEA0C01F0BDCFB992185B41F8
:101A5000B3FA83F704BFB2FA82F6BF190B3FB7F1AE
:101A600020062FBF02FA06F3BB40C7F1200622FA78
:101A700006F638BF3343BA401CB1E419641E33E79D
:101A80007F4231F00041B1FA81F404BFB0FA80F630
:101A9000A4190B3CB4F120062FBF00FA06F1A140B7
:101AA000C4F1200620FA06F638BF3143A0403C1BA3
:101AB0001AE7AC421ABF05EA1357AF4212E050EAE8
:101AC00041061CBF52EA4306BFE750EA41073046D1
:101AD00061461CBF41EA0551F0BD52EA430C08BF04
:101AE000C143F0BD00204FF4001616EB410F98BF24
:101AF00016EB430F08BF16EB410F24BFC14305E0AF
:101B000016EB430F0CBF61464CEA0551F0BD0000D7
:101B10004FF4001C1CEB410F94BF1CEB430F09E07A
:101B200041EA030C50EA4C0C52EA0C0C03D29942E5
:101B300008BF9042704714BF8B428242704700003A
:101B400080B50B48016841F400710160026842F4FD
:101B500080620260016841F480710160032000F03E
:101B600018F80F2001F07EFE01F030FC002002BDCD
:101B7000003C02400901020081B002D4294881548E
:101B800005E0294802F00F02104400F8041C01B0DF
:101B90007047264A13684FF6FF0100020B4000F41D
:101BA000E0601843224908431060704738B51F4B66
:101BB0001C68C4F30223C3F10704052C28BF0424C6
:101BC0001D1D072D34BF0023DB1E012505FA04F47B
:101BD000641E2140994005FA03F35B1E1A4011432D
:101BE000BDE83440C6E7010007D4012200F01F0120
:101BF000104B8A40400943F82020704710B5401E22
:101C0000B0F1807F01D3012010BD0B4C60600F212B
:101C10004FF0FF30FFF7AEFF0022A26007202060E8
:101C2000002010BD00E400E018ED00E00CED00E045
:101C30000000FA0500E100E010E000E038B5040023
:101C400001D1012032BD0020A06204F15005687866
:101C500020B900212970204601F0D7FB02206870CE
:101C600000F028F96268A068A1690243E0680243B5
:101C7000206902436069024301F40071E0690A438C
:101C80000243206A0243A06A024320680260A169FD
:101C9000606A090C01F0040101432068416020687A
:101CA000C16921F40061C161002068600120687091
:101CB000002032BD606840F0100060600125657052
:101CC0007047F8B500F06EF801D10220F2BD01278F
:101CD00027706778012F09D07068B0F5827F02BF46
:101CE000B0680028042F01D0022538E0002918BF71
:101CF000002A01D0180001D1012530E060780428C5
:101D00001CBF0527677065603163B386F386B263D5
:101D1000B387F38735647564F06C6178042905D165
:101D20000FF2611202640FF2B90004E00FF25D12CB
:101D300002640FF20D10F16C00F025F850B900F0BC
:101D400012F8B16C0D64B16CCD63B16CCD6400F070
:101D500010F810B1FFF7AEFF01E000F02AF8002004
:101D600020702846F2BD3068416841F001014160B1
:101D70007047B16C0D65F38E3068316B00F10C0269
:101D8000B06C01F002BEC863F16C0FF20910C864B8
:101D9000F16C0D65F38F3068B26B00F10C01F06CE3
:101DA00001F0F3BD064606F1500400252078012815
:101DB0007047306801684A0603D4026842F0400266
:101DC00002603068416841F020014160306841683C
:101DD00041F002014160704790F8510070470000E7
:101DE00038B500F01DF800F016F80FD400F043F8F5
:101DF00000F01AF82046642100F0AEF808B1202067
:101E00006065002000F016F800B1D3E02046BDE880
:101E1000324001F001BF024628680168CB057047D7
:101E20000546AC6B01F0FABE20684168890889005C
:101E300041607047E087012084F85100606D704771
:101E400038B5FFF7EDFFFFF7E6FF0FD400F013F80A
:101E50002046642100F09CF800F0B1F8FFF7E4FFA1
:101E60000020E086FFF7E6FF00B1A3E02046BDE8D2
:101E70003240FFF73DB92068416821F02001416000
:101E800070470000806B01F0CFBE0000806B01F056
:101E9000CCBE0000806B01684A68920892004A60DC
:101EA0000122416D41F01001416580F8512001F09F
:101EB000BDBE00002068016821F04001016070474C
:101EC00000002DE9F041069F05460E4690461C464F
:101ED000286881683140B1420CBF01200020404594
:101EE00031D014F1010FF3D001F098FEC01BA042D5
:101EF00001D2002CECD12868416821F0E00141605A
:101F00006868B0F5827F08D1A868B0F5004F18BFA7
:101F1000B0F5806F01D100F019F8A86AB0F5005F44
:101F200009D12868016821F400510160286802681D
:101F300042F40052026005F150000121417000217D
:101F40000170032000E00020BDE8F08128680168EE
:101F500021F040010160704738B504460B466068C7
:101F6000B0F5827F0BD1A068B0F5004F18BFB0F577
:101F7000806F04D12068056825F040050560009257
:101F8000802100222046FFF79CFF00F00CF832BDB4
:101F90001CB500920B46044600228021FFF791FFFA
:101FA00000F001F816BD20B1606D40F020006065C2
:101FB000032070472046BDE8324001F037BE18B11B
:101FC000606D40F0200060657047000038B5040087
:101FD00001D1012032BD00F055F818B900F04EF8DB
:101FE00001F033FB0FE00068C16841F00101C160FE
:101FF000816801F00701062903D0016841F0010161
:1020000001600020704702206870211D206800F0E8
:10201000C7F901206870002032BD03D1416C41F442
:1020200000414164816801F00701062903D001687D
:1020300041F001010160002016BD38B5040001D156
:10204000012032BD00F01EF818B900F017F801F0B9
:1020500031FAD8E71CB500F007F800F00AF81CBF09
:10206000DFF8C4108842D8E704460122206800F057
:10207000A7BA2068DFF8B4108842704700212970A1
:102080002046704704F13C0568787047C160012222
:102090003068016841F0010101607047F8B5040043
:1020A0000E4601D10120F2BDFFF7ECFF18B9FFF792
:1020B000E5FF01F025FA022068702168DFF8D402FC
:1020C0008A6802408A60211D206800F069F9216851
:1020D000DFF8C4028A688F690B6A0740B06807435B
:1020E000B06947EA0027DFF8B4020740F068074309
:1020F000F06947EA0027306947EA0017306A47EA83
:102100000037706823F0AA030343706943EA0013A1
:10211000306802438A6020688761012021680B6271
:1021200068700020F2BD0000000401400000014082
:1021300010B5044609B1042901D1012203E000F0E1
:102140000BF801220421206800F03AFAFFE720682A
:10215000FFF79FFF002010BD20680122002100F042
:102160002FBA10B50446206801698A0715D5C168E1
:102170008A0712D56FF0020202610121217780697E
:1021800010F0030F204602D001F051FD03E001F0F2
:102190004FFD00F087F800202077206801694A078A
:1021A00015D5C1684A0712D56FF0040202610221F9
:1021B0002177806910F4407F204602D001F037FD7E
:1021C00003E001F035FD00F06DF800202077206875
:1021D00001690A0715D5C1680A0712D56FF0080210
:1021E000026104212177C06910F0030F204602D05C
:1021F00001F01DFD03E001F01BFD00F053F800208D
:10220000207720680169CA0615D5C168CA0612D5AB
:102210006FF01002026108212177C06910F4407F3D
:10222000204602D001F003FD03E001F001FD00F0C3
:1022300039F80020207720680169CA0708D5C168ED
:10224000CA0705D56FF0010202612046FEF73FFE86
:10225000206801690A0608D5C1680A0605D56FF02D
:1022600080020261204601F0E4FC206801694A0610
:1022700008D5C1684A0605D56FF0400202612046C4
:1022800001F0D8FC206801698A060AD5C1688A066F
:1022900007D56FF0200202612046BDE8104001F032
:1022A000CABC10BD204601F0C7BC70B500F065F88F
:1022B00001D1022070BD00F067F832B1042A17D0B6
:1022C000082A28D00C2A39D04AE03068294600F084
:1022D000B2F83068816941F0080100F04AF821F055
:1022E0000401816131688A69286902438A6137E0A3
:1022F0003068294600F0C8F83068816941F400610F
:1023000000F037F821F4806100F033F82A6941EADF
:102310000221816124E03068294600F0E5F8306848
:10232000C16941F0080100F020F821F00401C16109
:102330003168CA6928690243CA6111E030682946D8
:1023400000F004F93068C16941F4006100F00DF853
:1023500021F4806100F009F82A6941EA0221C16193
:10236000012060700020207070BDC1613068C169BB
:1023700070478161306881697047064606F13C0408
:102380000D462078012870470121217002206070DD
:1023900070470000F8BFFFFFFCFCFFFF0303FFFFD7
:1023A000F0B57C4C05687C4B7C4E7D4FDFF8F4C16A
:1023B000A04218BFB0F1804F07D0604518BFB842A7
:1023C00003D0B04218BF98420DD14A6825F070057D
:1023D0001543A04218BFB0F1804F17D060451CBF15
:1023E000B842B04212D098421CBF6F4A90420DD002
:1023F0006E4A90421CBF6E4A904207D06D4A90428E
:102400001FBF6D4A90426D4A904203D1CA6825F4BD
:10241000407515434A6925F0800515430560A042C3
:102420008A68C2620A68826212BF984209690163BF
:1024300001214161F0BDF0B5026A564F564E520877
:1024400052000262056A4368846900F079F825F059
:1024500002051543B84218BFB04207D1CA6825F03B
:1024600008051543B84225F0040501D0B04205D156
:102470004A6923F4407313438A69134343608461B8
:10248000496841630562F0BDF0B5026A414E22F031
:1024900010020262B042056A436884690A6824F443
:1024A000E64444EA02248A6825F0200545EA02153C
:1024B000394A18BF904208D1CF6825F0800545EA17
:1024C0000715B04225F0400501D0904206D14E6973
:1024D0008A6923F44063164343EA860343608461B8
:1024E000496881630562F0BDF0B5026A294E22F4A5
:1024F00080720262056A4368C46900F021F825F41D
:10250000007545EA0225244AB04218BF904208D11E
:10251000CF6825F4006545EA0725B04225F48065BB
:1025200001D0904206D14E698A6923F44053164384
:1025300043EA06134360C4614968C1630562F0BDA4
:102540000A6824F0730414438A68704770B5026AFD
:10255000104E22F480520262B042046A4268C3699B
:102560000D6823F4E64343EA05238D6824F4005400
:102570001CBF094EB04244EA053404D14D6922F42F
:10258000804242EA85124260C36149680164046284
:1025900070BD00000000014000040140000C00403C
:1025A0000008004000040040004001400044014099
:1025B0000048014000180040001C0040002000407E
:1025C00010B501F01F01036A01248C40A34303628C
:1025D00002FA01F1036A1943016210BD10B5044605
:1025E000042220681CE00446080004D0042907D017
:1025F00008290AD00EE02068C26842F0020208E012
:102600002068C26842F0040203E02068C26842F019
:102610000802C2602068C36843F08003C3600422DC
:1026200000F059F82068416C41F400414164816830
:1026300001F00701062903D0016841F001010160A2
:10264000002010BD70B500F13C031A78012A01D1B9
:10265000022070BD01241C7002225A700468656853
:10266000A6684A68096825F070050D43656026F084
:10267000800600681643866001215970002018709A
:1026800070BD10B590F83C20012A01D1022010BD88
:10269000012380F83C30CC688A684B6824F440748D
:1026A000144324F480641C430A680B6924F4006416
:1026B000144324F480541C434A69C96924F4005427
:1026C000144324F480440C4301684C64002280F8D5
:1026D0003C20002010BD10B501F01F01036A042446
:1026E0008C40A343036202FA01F1036A19430162B9
:1026F00010BD0000002201F0A1BA000038B50400AE
:1027000001D1012032BD00F022F808B900F023F811
:1027100000F013F800F024F8FFE7416100F001F841
:1027200032BD2068C16841F40051C160002068607A
:1027300020206870A87000207047242068702068EE
:10274000C16821F40051C160204600F06EB904F167
:1027500038056878704700212970204600F0E7BFEF
:102760002068016921F4904101612068416921F0EC
:102770002A01704730B500F138035C78202C17D15E
:1027800009B1140001D1012030BD1C78012C0FD0FB
:1027900001251D7001628284C284002159602121BB
:1027A0005970002119700068C16841F080012BE068
:1027B000022030BD30B500F138039C78202C21D1A7
:1027C00009B1140001D1012030BD1C78012C19D0B1
:1027D00001251D7081628285C285002159602221F8
:1027E0009970002119700168CA6842F48072CA6049
:1027F00001684A6942F001024A610068C16841F01B
:10280000200101E0022030BDC160002030BD4169DF
:1028100021F040014161606B704738B5044625687E
:102820002968EA686B6911F00F0007D188065DD549
:1028300090065BD52046BDE83240ABE0D80702D415
:1028400012F4907F52D0C80705D5D00503D5E06BB0
:1028500040F00100E063480705D5D80703D5E06BD9
:1028600040F00200E063880705D5D80703D5E06B88
:1028700040F00400E063080705D5D80703D5E06BF6
:1028800040F00800E063E06B00286ED0890604D5B4
:10289000900644BF204600F07DF820684069E16B57
:1028A0000A0701D440061BD5204600F05FF82068D7
:1028B00041694A060FD5FFF7AAFF60B10FF2C901BF
:1028C0000165606B01F096F800284ED0606B016DD9
:1028D000BDE8344008472046BDE8324001F0C7B9A2
:1028E000204601F0C4F90020E06331BD08062CD574
:1028F00010062AD594F83900212836D1A168206A1B
:10290000B1F5805F0DD10188C1F3080169602069CC
:1029100018B9216A881C206207E0206A411C2162E4
:1029200003E0411C216200786860E08C401EE08476
:1029300080B2D0B92068C16821F08001C1602068F0
:10294000C16841F04001C16031BD48060DD5500657
:102950000BD5E86820F04000E860202184F83910A9
:102960002046BDE83240FEF777B831BD0168CA683D
:1029700022F49072CA6001684A69520852004A61A2
:10298000202180F83A107047806B0021C185C184F6
:1029900001F06DB980B590F83A10222943D18268D0
:1029A000B2F5805F14D1826A016941B90368596840
:1029B000C1F308011180826A911C816218E00168EC
:1029C0004B6803F0FF031380816A4A1C82620FE0A8
:1029D00001690029816A04D14A1C82620268536835
:1029E00005E04A1C82620268536803F07F030B70A3
:1029F000C18D491EC18589B299B90168CA6822F0A2
:102A00002002CA600168CA6822F48072CA60016844
:102A10004A69520852004A61202180F83A10FDF7B5
:102A2000D4FF002002BD022002BD2DE9F04704467C
:102A3000642521680A69E06822F4405202430A6171
:102A40001926CA6848480240A06802432069024328
:102A500060690243E0690243CA604A69A06922F4DE
:102A6000407202434A61E3694048414AB3F5004F6E
:102A70003BD1914218BF814210D100F090FC074633
:102A800000F08DFC804600F08AFC814600F087FC57
:102A900006FB09F9824600F082FC0FE000F077FCAB
:102AA000074600F074FC804600F071FC814600F09F
:102AB0006EFC06FB09F9824600F069FC616849007A
:102AC00000F058F8DB003233B3FBF5F35B00B2FBE8
:102AD000F5F203F4F87300F05BF8ED003235642092
:102AE000B5FBF0F000F0070037E0914218BF8142DB
:102AF0000ED100F054FC074600F051FC804600F077
:102B00004EFC814600F04BFC824600F048FC0DE094
:102B100000F03DFC074600F03AFC804600F037FC30
:102B2000814600F034FC824600F031FC06FB09F9D6
:102B30006168890000F01EF81B013233B3FBF5F326
:102B4000B2FBF5F203F0F00300F022F82D0132356C
:102B50006420B5FBF0F000F00F002168C3188B6013
:102B6000BDE8F08700000000F369FFFF001401409A
:102B7000001001407743B7FBF1F206FB08F7B7FB03
:102B8000F1F3B9FBF1F7B7FBF5F705FB1733704726
:102B900003EB021306FB0AF74643B7FBF1F2B6FB61
:102BA000F1F06421B0FBF1F005FB10257047000047
:102BB0002DE9F84F4FF0000E6E4A6F4BDFF8BC81E5
:102BC0004FF00F0906468A460121DAF8004001FA63
:102BD0000EF10C408C4240F0B780DAF80450022D20
:102BE00018BF122D4FEA8E0012D14FEADE0506EB18
:102BF000850C00F01C05DCF8207009FA05FB27EABB
:102C00000B07DAF810B00BFA05F53D43CCF820506D
:102C10004FEA4E0C032537689AF804B005FA0CF514
:102C2000ED430BF0030B2F400BFA0CFB4BEA0707AD
:102C30003760DAF80470012F18BF022F03D0112F6C
:102C400018BF122F13D1B768DAF80CB02F400BFA67
:102C50000CFB4BEA0707B760776827EA0101DAF84F
:102C60000470C7F3001707FA0EF739437160F16873
:102C70000D40DAF8081001FA0CF12943F160DAF896
:102C80000410C90060D50025009500F00C00D8F8AC
:102C9000001041F48041C8F8001009FA00F7D8F894
:102CA000005005F48045009500994FEA9E0153F8C5
:102CB000215025EA0707324DAE4208BF00251DD03E
:102CC000304DAE4208BF012518D02F4DAE4208BF8F
:102CD000022513D02D4DAE4208BF03250ED02C4D3A
:102CE000AE4208BF042509D02A4DAE4208BF0525D3
:102CF00004D0294DAE420CBF0625072505FA00F089
:102D0000384343F82100E0431168DAF804500140E9
:102D1000ED0348BF214311605168DAF804500140C7
:102D2000AD0348BF214351609168DAF80450014077
:102D3000ED0248BF21439160D1680140DAF80400F8
:102D4000800248BF2143D1600EF1010EBEF10F0F8A
:102D50007FF63AAFBDE8F18F0069084018BF012047
:102D6000C0B2704781B002B90904FFE7816101B0C8
:102D700070470000003C01400838014044380240E0
:102D8000000002400004024000080240000C024023
:102D9000001002400014024000180240103A07D30D
:102DA00030B4B1E83810103AA0E83810F9D230BC8D
:102DB000530724BFB1E80810A0E8081044BF51F839
:102DC000043B40F8043BD20724BF31F8022B20F823
:102DD000022B44BF0B7803707047121F17D35B00A0
:102DE00009D151F8043B20F8023B1B0C121F20F8BC
:102DF000023BF6D20BE051F8043B00F8013B1B0A02
:102E000020F8023B1B0C121F00F8013BF3D238BF25
:102E1000121D521E24BF11F8013B00F8013BF8D8E7
:102E20007047000001460020842918BFC81C704765
:102E300080B500F0EEFF002002BD3EB504460D4611
:102E4000B4F90800FFF7EEFF02A9019100902B46AC
:102E500022692168606892B200F00AFF012801D05F
:102E600000203EBD02983EBD80B500B9012000F0B3
:102E7000B6FF002002BD80B501F017F9012803D08C
:102E8000BDE8014001F030BA01BD0000DFF8645335
:102E90000020086000F0C2BE2DE95841DFF8604311
:102EA000DFF85863606800F00C00082802D00C2896
:102EB00008D00FE000F011F82168C1F30141491C6E
:102EC000490004E000F009F82168C1F30271B0FB89
:102ED000F1F000E03046BDE85281226820682068A9
:102EE000C0F3881802F03F020023A6FB080101F09E
:102EF00033BA2DE9F8430646DFF8F8523078C107B7
:102F000046D500F06EF904280DD000F06AF90828C3
:102F100002D16868410206D400F063F90C280BD195
:102F20006868410208D52968880331D5706800288F
:102F300040F0B380012052E17068B0F5803F06D0C8
:102F4000B0F5A02F296807D141F4802129602868B5
:102F500040F48030286006E021F4803129602A683E
:102F600022F480222A60706868B100F057FE04469F
:102F70002968880300F1918000F050FE001B65284D
:102F8000F6D303202BE100F049FE044628688103B4
:102F900040F1838000F042FE001B6528F6D3F0E785
:102FA00000F03CFE001B022840F2AA80E9E7F0682E
:102FB00070B10121396000F031FE044628688107B4
:102FC00000F1CE8000F02AFE001B0228F6D9D8E7D7
:102FD000386000F023FE04462868810760D500F0C1
:102FE0001DFE001B0228F7D9CBE7FFF752FF04466E
:102FF000686F810779D500F011FE001B0228F7D910
:10300000BFE70528286F06D140F004002867286F25
:1030100040F0010005E0400840002867286F20F0DC
:103020000400286741F28938B06868B100F0F6FD05
:103030008146286F810700F1A08000F0EFFDA0EB32
:1030400009004045F5D39CE700F0E8FD8146286F74
:10305000810740F1928000F0E1FDA0EB09004045BE
:10306000F5D38EE700F0DAFD001B022840F29880CD
:1030700087E700F0D3FD001B022840F2AB8080E719
:1030800000F0B3F804462868810140F1A78000F001
:10309000C5FD001B0228F6D973E73078594F810728
:1030A00021D5A86810F00C0F0FD000F09AF808286E
:1030B00002D16868410208D500F093F80C287FF42B
:1030C00076AF686841023FF572AF2968880703D57B
:1030D000F06801287FF42EAF2968306921F0F801EB
:1030E00041EAC0012960317808070DD57069464969
:1030F00000283FF47AAF01220A6000F08FFD0446F9
:10310000686F81077FF54CAF317848073AD5286C56
:103110000024C1000AD400940124286C40F080509F
:103120002864286C00F0805000900098DFF8C88078
:10313000D8F80010C8051BD4D8F8000040F48070FF
:10314000C8F8000000F06AFD8146D8F80010C805F4
:103150000ED400F063FDA0EB09000228F5D910E7BA
:103160002868316920F0F80040EAC1002860BAE719
:10317000B06801287FF445AF49E71CB1286C20F006
:1031800080502864B06948B3A96801F00C0108298F
:103190003FF4D0AE02287FF473AF00F026F8044667
:1031A000286881013FF55EAFF169306AB26A014378
:1031B000706A520841EA8011521EF06A41EA0241E7
:1031C000326B41EA006141EA02716960012000F05E
:1031D0000DF80446286881017FF54BAF0020BDE85B
:1031E000F283A86800F00C0070470020386600F0F9
:1031F00015BD000000380240007000400024F400BB
:103200000438024000004742800E4742F8B500F003
:1032100027F8012100F01EF8316000F0FFFC07469E
:103220002868C1030CD400F0F9FCC01BA042F7D3FE
:103230000320F2BD00F0F2FC801BA04205D3F7E7AB
:103240000120706000F0EAFC064628688103F1D591
:103250000020F2BD006800F0805000900098704798
:103260000020009040F2E9340448054E0168024D08
:1032700041F08051016070470470004040380240C6
:1032800040000E422DE9F84304000F4677D0494E26
:10329000306800F00F00B84202D200F072F86ED130
:1032A0002068454D810712D5400703D5A86840F432
:1032B000E050A8602178080703D5A86840F4604072
:1032C000A860A968A06821F0F0010143A9602078F6
:1032D000C1074CD56068012802D129688A0305E03E
:1032E000022818BF032803D129688A0103D446E0C5
:1032F0002A68910743D5A968890840EA8100A86037
:1033000041F2893900F08AFC8046A868616800F0C3
:103310000C00B0EB810F2AD000F080FCA0EB08007D
:103320004845F2D3032020E02078410705D5A9685D
:10333000E06821F4E0510143A9602078010706D537
:10334000A868216920F4604040EAC100A860FFF746
:10335000A3FDAA681949C2F30312895C184AC84040
:1033600010600F2000F07EFA0020BDE8F283306884
:1033700000F00F008742D7D200F003F8D4D001202C
:10338000F3E73770316801F00F01B94270470C481C
:103390000C4A006813680C49C3F3822206E008480F
:1033A000084A006813680849C3F34232895CC84080
:1033B00070470000003C02400038024054490008B9
:1033C0000802002008380240B84A000882B00020F5
:1033D00000900022DFF80804416841F48041416018
:1033E000416801F480410091009900920F21036827
:1033F00043F080530360006800F080500090009814
:103400006FF0010002B0FEF7D1BBF8B586B000F056
:1034100089F92168DFF8CC23914242D100F0DAF932
:10342000DFF8C4630169DFF8C45341F480410161EE
:103430004FF48067016901F4804100910099009286
:103440004FF4604100F0BDF900F066F9032105205A
:1034500004910590029200F0B0F900207060B06015
:1034600000F021F835603761304600F01BFA08B1F2
:10347000FDF7B3FFE664B46305F11800DFF870638D
:1034800030600020706037614020B060002000F0A4
:103490000AF8304600F006FA08B1FDF79EFFA66470
:1034A000B46307B0F0BDF0607061B061F06130628C
:1034B000706270470068DFF84013884200D07047A0
:1034C00080B50021DFF8340300910521026842F045
:1034D000010202600022006800F0010000900098E4
:1034E0001920FEF763FB1920FEF77DFB0022052162
:1034F0001A20FEF75BFBBDE802401A20FEF773BB03
:1035000038B586B0044668461421FFF7F3F8226800
:10351000DFF8E042DFF8E802DFF8E812B2F1804FAE
:103520002BD1002205920B6943F001030B610023AC
:103530000A6900F06FF80D6845F001050D600A6832
:1035400000F068F84FF400420D6845F002050D6088
:103550000223096801F0020100F06FF801210491D3
:103560006946FFF725FB0820009002210020029009
:10357000039001910120049028E0DFF88C329A42F8
:103580000DD1002005900A6942F002020A61002272
:10359000086900F0020000F043F830210FE09B4B77
:1035A0009A4216D1002005900A6942F004020A618D
:1035B0000022086900F0040000F032F8C0210598EC
:1035C00000910020029003900192049269462046E7
:1035D0001CE08F4B9A421BD1002205920B6943F0ED
:1035E00008030B6100230A6902F008020592059A9C
:1035F000059303220C6844F001040C60022309685F
:1036000001F0010100F019F804936946FFF7D0FAC0
:1036100007B030BD02F001020592059A059370478C
:1036200005900598059202220B6843F002030B6097
:10363000086800F002000590704705910599009216
:103640000021029103910193704780B50068714A8F
:103650006349904211D1002000900A6842F01002A4
:103660000A600022086800F0100000900521009810
:103670003620FEF79BFA362028E0674A904211D1A7
:10368000002000904A6842F400324A6000224868F4
:1036900000F400300090052100981920FEF786FA0A
:1036A000192013E05D4A904214D1002000904A682E
:1036B00042F480224A600022486800F48020009092
:1036C000052100981A20FEF771FA1A20BDE8024081
:1036D000FEF789BA01BD10B586B000F023F8216865
:1036E000454A914216D100200090022245480168C7
:1036F00041F0010101604FF47061006800F00100C9
:1037000000F00AF8049002920120059001A93C48BB
:10371000FFF74EFA06B010BD00900098019100200E
:1037200003907047044601A81421FEF7E3BF10B5CB
:1037300086B0FFF7F7FF2168394A914235D100F092
:1037400049F8016941F480210161016901F4802196
:10375000009100990092036843F00403036001683C
:1037600001F00401009100990092202100F029F855
:10377000009000980191012000F019F8029201A92F
:103780002848FFF715FA4FF48060019002210120CC
:10379000029100F00CF800F010F80022052127201B
:1037A000FEF704FA2720FEF71EFA06B010BD0390BC
:1037B0000321072004910590704701A90D48FFF7E8
:1037C000F7B9036843F0020303600222006800F0C7
:1037D000020070470020009000220A487047000055
:1037E0004038024000380040004400205860024049
:1037F00060440020000402400000014044380240C0
:103800000000024030380240000400400008004040
:10381000000C0040001000400044014000480140FE
:103820000048004000080240C1F30A5340F2FE3253
:103830009B1A14DDD3F120034FEAE17208DDC902BF
:1038400041EA505141F00040D84080185040704744
:1038500003F2E13010B1D24382F000407047002003
:103860007047000038B50D4D0D4A297804464FF4D5
:103870007A70B0FBF1F11068B0FBF1F0FEF7BEF921
:1038800050B9102C08D2002221464FF0FF30FEF72D
:103890008DF9AC60002032BD012032BDFC0100205A
:1038A000080200207CB5044600F0B8F906460CB9C1
:1038B000012076BD04F134050020287002206870D4
:1038C00000F077F921680868C20720D500F0A6F952
:1038D000801B0628F6D320202862032015E0B0F5CF
:1038E000005F09D1032E42D8DFE806F00C0A0C0273
:1038F000B1F1C07F3BD105E0022E03D9F61E36D1CF
:10390000C80134D5402028620120687076BD0A685D
:10391000DFF88C02024060680243A0680243E0685E
:1039200002432069024360690243A0690243E069DF
:103930000243206A0243606A042803D1E36A206BD1
:1039400003431A430A6023685A69606AD20804284C
:1039500040EAC2020BD1A66AE16A324339B1A069DA
:103960000028BCD1002E18BF022EC9D0C0D35A6186
:10397000204600F039F9A96A3F228A40826000207F
:10398000286201206870002076BDF8B5044604F175
:10399000340600253078776A012801D10220F2BD73
:1039A000012030707078012820D1022070703562BB
:1039B000204600F009F9B06A3F218140B9602068D3
:1039C000016841F0160101602068416941F0800101
:1039D0004161F06820B12068016841F00801016090
:1039E0002068026842F00102026001E035700225A1
:1039F0002846F2BD90F83510022903D08022426596
:103A000001207047052180F83510006801684908D9
:103A100049000160002070472DE9FC41044604F193
:103A2000340600205F4900904FF41650776A0A6808
:103A30003D68B2FBF0F8B06A082100F0B6F80ED08D
:103A40002068026853070AD5036823F00403036063
:103A5000B06A8140B960306A40F001003062B06AFB
:103A600025FA00F1C9070BD521684A69110607D567
:103A7000012101FA00F0B860306A40F002003062C3
:103A8000042100F091F808D021680A68930704D552
:103A9000B860306A40F004003062102100F084F811
:103AA0001BD021680A68130717D5B8602068016821
:103AB0004A0307D5006801030BD5716969B1204637
:103AC00088470AE00168CA0503D4026822F00802A8
:103AD0000260F16809B120468847B06A202100F0F1
:103AE00064F841D021680A68D3063DD5B8602068E3
:103AF0007178052920D1026822F016020260206840
:103B0000416921F080014161F168002904BF7069B9
:103B1000002804D02068016821F0080101603F22DC
:103B2000B06A8240BA6000F04AF8F169002935D0E5
:103B30002046BDE8FC41084701684A0307D50068F4
:103B400001030DD4316979B1204688470CE0016842
:103B5000CA0505D4026822F01002026000F02FF8B6
:103B6000B16809B120468847306AB8B1316AC807E0
:103B70000ED50520707000F01CF820680099491CD3
:103B80008845009102D30168CA07F7D400F017F8FE
:103B9000B16919B12046BDE8FC410847BDE8F38191
:103BA0003F8010F008020020B06A01FA00F00542E0
:103BB000704720680168490849000160704700208B
:103BC000307001207070704738B50468256825F49E
:103BD0008025256063608068402802D1A260E16092
:103BE00031BDA160E26031BD81B0016801F0FF022A
:103BF000103A1823B2FBF3F205A39B5CC365890A54
:103C00008902042A28BF091D8165084601B0704752
:103C100000061016000610167047000001484068A4
:103C2000704700BFFC010020704770477047704725
:103C300070477047704770477047000000B500BF7D
:103C4000130096469446103928BFA0E80C50FAD8C5
:103C50005FEA417C28BF0CC048BF40F8042BC9076D
:103C600028BF20F8022B48BF00F8012B00BD704789
:103C70002DE9F8430646174684B088469946B800B1
:103C800000F082FC05001AD0542000F07DFC0400F6
:103C900012D00D990C982563002203920191009097
:103CA00002944B463A464146304600F00DF8204615
:103CB00000F046F8012004E0284600F0EEFC4FF04A
:103CC000FF3005B0BDE8F0832DE9F0470A9E81463C
:103CD000306B00EB8202101FC0084FEAC00A0022BE
:103CE000885CB41884F83400885C10B1521C102A27
:103CF000F6D3089D002086F84300062D099C88BF56
:103D0000062506F14407F5623D6078609846301D4F
:103D100000F021FD06F1180000F01DFD3661C5F12F
:103D20000705B56176620020B8603873424649469F
:103D3000504600F035FA306004B12660BDE8F087E7
:103D40002DE9F04100F062F8DFF8AC53DFF8D083E2
:103D5000E86C401CE8641426A86A28BBAC62E86CD6
:103D6000012829D1002706FB07F0404400F0E6FCBB
:103D70007F1C072FF7D305F1740000F0DFFC05F17D
:103D80008807384600F0DAFC284600F0D7FC05F139
:103D9000140000F0D3FC05F1380000F0CFFC05F171
:103DA0007400E8622F6307E0A86D28B9E16AA86A89
:103DB000C26A914228BFAC62A86E401CA86600F09F
:103DC0008BF94643211D08EB060000F0C7FC00F00C
:103DD0007AFAA86D08B100F094F9BDE8F08180B5D9
:103DE00078B1DFF81423116F11B100F06DF9FEE71F
:103DF000116F491C1167002100F094F900F039F8A7
:103E000018B900F074F900F062F901BD044600F041
:103E100041BA3EB5DFF870430FF27C3104F19C00EB
:103E2000019000250095002380220FF20120FFF76A
:103E30001FFF502101280ED181F3118800F047F9AE
:103E40004FF0FF30E0660120A0652565BDE83740F2
:103E500000F0CEB937BD10F1010FFBD181F311880D
:103E600000F035F9FEE7DFF82003016F491C016718
:103E7000704770B5DFF88062306F0024002528B9E4
:103E8000502181F3118800F022F9FEE700F002FAD8
:103E9000306F401E3067316F002937D1F06CD8B9D0
:103EA00034E0F168CC6800F032F800F00AF9E06A1A
:103EB000716D01228240114371651423DFF8C42221
:103EC0005843211D104400F049FCE06AB16ACA6AF7
:103ED000904224BF0120306630680028E1D10CB147
:103EE00000F0D6F8F46D3CB100F015F808B10120EF
:103EF0003066641EF8D1F565306E38B1DFF88C029B
:103F00004FF080510125016000F0E1F8EBE004F191
:103F1000180000F048BC2DE9F843DFF8DC71386F79
:103F20000026002850D13C6D641C3C6511D1F86A14
:103F3000006828B1502181F3118800F0C8F8FEE72D
:103F4000F86A396BF9623863786E401C786600F065
:103F50009FF8F86EDFF82C9284424FF0140825D3B6
:103F60001AE0281D00F01FFCA86A18B105F118001E
:103F700000F019FCE86A796D0122824011437965ED
:103F800008FB00F0291D484400F0E8FBE86AB96A24
:103F9000CA6A904228BF0126F86A006880B1F96AAF
:103FA000C868C56868688442DBD2F866B86AC06AC7
:103FB00008FB00F159F80100022808D3012606E0A9
:103FC0004FF0FF31F966F1E7F86D401CF865386E87
:103FD00000B1012692E0DFF8201181B0086F10B126
:103FE00001220A6620E00866DFF89831486DB0FAD1
:103FF00080F2C2F11F0214204243985838B9502170
:1040000081F31188BFF34F8FBFF36F8FFEE79818CE
:1040100000F108034268526842609A4204BF526845
:1040200042604068C2688A6201B070472DE9F04181
:10403000DFF85841DFF8E880DFF84C714FF0805529
:1040400011E000F027F9386AC668301D00F0ABFBBC
:10405000F86C401EF864786B401E786300F033F90A
:10406000304600F00BF8786B0028EAD1D8F8001041
:104070000229F8D3256000F02AF8F4E710B50446C9
:10408000206B00F00AFB2046BDE8104000F005BBA5
:104090001949C86A006810B94FF0FF3203E0C86AD6
:1040A000C268D0684268CA667047DFF8DC10886D65
:1040B00008B901207047086F08B902207047002036
:1040C0007047201D00F06FBB502080F31188BFF3B4
:1040D0004F8FBFF36F8F70470122E06A696D824096
:1040E00011436965704700F0EEF8284670BD274916
:1040F0004FF08050086070475C4200203046BDE8B9
:10410000F283A96AC86AE16A884207D21F494FF060
:1041100080500860BFF34F8FBFF36F8F7047000070
:10412000FC420020F8B5184D2F6D0C46A96A0646D2
:10413000081D00F038FB30B9A86A696DC06A012219
:1041400082409143696516F1010F05D124B1A86A37
:10415000011D05F138001BE0A86AF6194660BE4251
:10416000A86A05D2011D286BBDE8F44000F002BB2F
:10417000011DE86A00F0FEFAE86E864238BFEE667E
:10418000F1BD0000FC4200205C42002004ED00E094
:10419000BDE8F44000F0E2BA49444C45000000009C
:1041A0004908490010B5A0F120034FF080749961CF
:1041B000DC611A600FF2110159616FF0020140F8E1
:1041C000241D203810BD000052494A68502012F1C9
:1041D000010F06D080F31188BFF34F8FBFF36F8FAD
:1041E000FEE780F31188BFF34F8FBFF36F8FFEE7B9
:1041F0007CB54949494B0A6850209A4202D100F0E7
:1042000082F8FEE70B68464CA34202D100F07BF82F
:10421000FEE7444A14780194FF23137007251378AE
:104220003C4C8DF800309DF80030A56003F0500341
:10423000237006E05B1EA3609DF800305B008DF8E4
:104240000030A3689DF800502E06F3D4C3F1070593
:10425000042D02D000F057F8FEE71B0203F4E063E0
:10426000A36001981070086A40F470000862086A40
:1042700040F07040086200F05BF80020606000F0E1
:10428000EFFA2948016841F04041016000F0D8FA96
:10429000002076BD502080F31188BFF34F8FBFF30D
:1042A0006F8F1C494A68521C012A4A600AD11F4973
:1042B0000A68130606D080F31188BFF34F8FBFF34F
:1042C0006F8FFEE770471349486838B9502080F374
:1042D0001188BFF34F8FBFF36F8FFEE7401E48601A
:1042E00008BF80F31188704780B5502000F00BF8AC
:1042F000FFF711FE18B10D494FF080500860002102
:1043000081F3118801BD80F31188BFF34F8FBFF394
:104310006F8F7047F001002000ED00E071C20F4187
:1043200070C20F4100E400E034EF00E004ED00E073
:1043300007480021016081604FF47A7305490A68DB
:10434000B2FBF3F35B1E436007210160704700BFBF
:1043500010E000E008020020B3BBD9B1B2F5803F05
:104360007DD2022A1ED98C46B1FBF2F102FB11C3A9
:104370001B0443EA1043B3FBF2FC02FB1C3380B284
:1043800040EA0343B3FBF2F002FB103240EA0C4078
:1043900000237047022A05D98446B0FBF2F002FBE5
:1043A00010C270474AB105D100F0010249085FEA26
:1043B0003000704700220023704700F05FBA0B0006
:1043C0000200002100207047904271EB030CF6D3ED
:1043D000B3F5803F2FD2F0B5B3FA83F7B1FA81F489
:1043E000A7F10F0E3D1B5340CEF1200602FA0EF24C
:1043F000F3415340B5F10F0746D80F3C2C444140E0
:10440000C4F12006A040F1414140B1FBF3F603FBAB
:104410001611A2FB0645001BA94102D2761E801888
:10442000594180EA010221FA0EF362FA0EF20021EC
:104430005A403046F0BD30B4B1FBF3FC03FB1C1115
:10444000A2FB0C45001BA94103D2ACF1010C801862
:10445000594130BC02460B46604600217047B2F11C
:10446000807F65D3F0B5B2FA82F7B1FA81F4C7F173
:104470000F063D1B22FA06F307F1110EF24120351B
:104480005A40B5F10F07B8D94140C4F12006A04009
:10449000F1414140B1FBF3FC03FB1C11A2FB0C45B5
:1044A000001BA94103D2BCF1010C801859410F2F08
:1044B00012D30F3FC90341EA5041B1FBF3F603FBAE
:1044C0001611A2FB0645D4EBC030A94102D2761EDC
:1044D0008018594146EACC3C07B34140C7F1200659
:1044E000B840F1414140B1FBF3F603FB1611A2FBCA
:1044F0000645001BA94102D2761E8018594180EA68
:10450000010221FA0EF3C7F1200462FA0EF20CFA4E
:1045100007F05A402CFA04F13043F0BD80EA010262
:1045200021FA0EF3002162FA0EF260465A40F0BD05
:104530008C46B1FBF2F102FB11C31B0243EA10638C
:10454000B3FBF2FC02FB1C331B024CEA002043EAE3
:104550001063B3FBF2FC02FB1C331B024CEA00208D
:1045600043EA1063B3FBF2FC02FB1C331B024CEA70
:10457000002043EA1063B3FBF2FC02FB1C324CEA5E
:1045800000200023704700002DE9F8430446FFF7A0
:104590006AFC694FB8684FF00009002508BB07F1B5
:1045A000180307F1180113F0070F4FF470500A4673
:1045B00005D0CA1DD208D200C2F570500818801864
:1045C0000838C008C0003A607D60B860456005608A
:1045D000811A5160106050683861F8604FF00040F7
:1045E00078614FF050087869044233D194B30834AD
:1045F00014F0070F1FBF04F1080004F00704041BA8
:1046000014F0070F02D000F041F8FEE714B3F86889
:10461000A0421FD33E6839467068A04223D230685A
:1046200000281CBF31460646F6D11CE0301D025161
:104630007460084600F05BF87168F8683A69401ADF
:10464000F860904238BF3861786901437160356025
:1046500009F00705FFF70DFC15B100F017F8FEE7AC
:104660004846BDE8F283B8688642F3D032680868ED
:104670000A6000F108097268121B112ADCD3311993
:1046800011F00700D2D000F001F8FEE788F311889E
:10469000BFF34F8FBFF36F8F7047002800D1704773
:1046A00038B5A0F10804244D61686A6950231142AD
:1046B00002D100F015F8FEE7206810B100F010F804
:1046C000FEE791436160FFF7CEFBE968606841183F
:1046D000E960204600F00BF8BDE83140FFF7C9BBA8
:1046E00083F31188BFF34F8FBFF36F8F704730B5DF
:1046F00011490A4600E0224614688442FBD35368FD
:10470000D418844203D14068C318536010464368EC
:104710001468C518A54208D189688C4204D0616824
:10472000CB184360246800E00C460460824218BF46
:10473000106030BD000000000C02002000F10801F4
:1047400041604FF0FF31816000F10801C1600161FB
:1047500000210160704700210161704742684A6092
:1047600093688B6093685960916008610168491C87
:104770000160704730B50A6812F1010F08BF036984
:1047800007D000F1080300E023465C682568AA42D0
:10479000FAD25A684A6091608B605960086101687A
:1047A000491C016030BD4368016982689A60836872
:1047B00042685A604A68824204BF82684A600022A6
:1047C00002610868401E086008687047EFF30980BE
:1047D000BFF36F8F264B1A681EF0100F08BF20ED35
:1047E000108A20E9F04F106009B44FF0500080F3B8
:1047F0001188BFF34F8FBFF36F8FFFF7ECFB4FF0C4
:10480000000080F3118809BC19680868B0E8F04F0F
:104810001EF0100F08BFB0EC108A80F30988BFF3B8
:104820006F8F7047124B19680868B0E8F04F80F33B
:104830000988BFF36F8F4FF0000080F31188704735
:104840000C480068006880F308884FF0000080F38F
:10485000148862B661B6BFF34F8FBFF36F8F00DF6E
:10486000DFF81400016841F4700101607047000036
:104870008442002008ED00E088ED00E07047000071
:104880007047FEE7FEE7FEE7FEE7704780B500F001
:1048900031F8BDE80140FEF7EEBA0F48FFF7BCB8AB
:1048A0000E48FFF7B9B880B50D48FDF75AFCBDE8D2
:1048B00002400C48FDF755BC80B50948FDF751FC96
:1048C000BDE802400848FDF74CBC0848FDF7A5BF0D
:1048D0000748FDF746BC000000440020604400206B
:1048E0007C450020D8410020184200208C00002088
:1048F0009841002002484168027889184160704759
:10490000FC0100200E48016841F4700101600022A2
:104910000C49086840F0010008608A600A480A688B
:1049200002400A60002209484860086820F480209C
:104930000860CA604FF000600549086070470000D9
:1049400088ED00E000380240FFFFF6FE1030002442
:1049500008ED00E000000000000000000102030478
:104960000607080919E050F8042BD30744BFA9F142
:1049700001039A18091F0023042942F8043BF9D2C5
:104980005FEA817C134604D54FF0000CA2F800C00A
:104990009B1CC90744BF0021197050F8041B002953
:1049A000E1D1704730B5016884684218416802EB74
:1049B0005103C9070BD54C4409E012F9011B12F849
:1049C000015B002904F8015B05D5491CF9D19A4225
:1049D000F3D10C3030BD491EF1D5F8E710B50749C9
:1049E00079441831064C7C44163404E00A68081DEA
:1049F000114488470146A142F8D110BD2C000000A7
:104A0000480000004EF68851CEF20001086840F4DC
:104A100070000860BFF34F8FBFF36F8F4FF00070CF
:104A2000E1EE100A704700003DFFFFFFE043000089
:104A30000C020020000000006DFFFFFFC401000019
:104A4000C00000000000002000F00DF8002801D098
:104A5000FFF7C4FFAFF300800020AFF30080FBF747
:104A600083FC00F002F80120704700F001B800005C
:104A70000746384600F002F8FBE7000080B5AFF3C8
:104A80000080024A11001820ABBEFBE7260002009E
:104A9000014880470148004705490008AD4A000821
:104AA00064656661756C745461736B00AFF300806C
:104AB000FFF7A8FFFFF7C8FF000000000102030492
:104AC000FFF7FEBFFFF7FEBFFFF7FEBFFFF7FEBF1A
:104AD000FFF7FEBFFFF7FEBFFFF7FEBFFFF7FEBF0A
:104AE000FFF7FEBFFFF7FEBFFFF7FEBFFFF7FEBFFA
:104AF000FFF7FEBFFFF7FEBFFFF7FEBFFFF7FEBFEA
:104B0000FFF7FEBFFFF7FEBFFFF7FEBFFFF7FEBFD9
:104B1000FFF7FEBFFFF7FEBFFFF7FEBFFFF7FEBFC9
:104B2000FFF7FEBFFFF7FEBFFFF7FEBFFFF7FEBFB9
:104B3000FFF7FEBFFFF7FEBFFFF7FEBFFFF7FEBFA9
:104B4000FFF7FEBFFFF7FEBFFFF7FEBFFFF7FEBF99
:104B5000FFF7FEBFFFF7FEBFFFF7FEBFFFF7FEBF89
:104B6000FFF7FEBFFFF7FEBFFFF7FEBFFFF7FEBF79
:104B7000FFF7FEBFFFF7FEBFFFF7FEBFFFF7FEBF69
:104B8000FFF7FEBFFFF7FEBFFFF7FEBFFFF7FEBF59
:104B9000FFF7FEBFFFF7FEBFFFF7FEBFFFF7FEBF49
:104BA000FFF7FEBFFFF7FEBFFFF7FEBFFFF7FEBF39
:104BB000FFF7FEBFFFF7FEBFFFF7FEBFFFF7FEBF29
:104BC000FFF7FEBFFFF7FEBFFFF7FEBFFFF7FEBF19
:104BD000FFF7FEBFFFF7FEBFFFF7FEBFFFF7FEBF09
:104BE000FFF7FEBFFFF7FEBFFFF7FEBFFFF7FEBFF9
:104BF000FFF7FEBFFFF7FEBFFFF7FEBFFFF7FEBFE9
:104C0000F4000D881300008813000088130000884A
:104C100013B20001FFAAFC6486000064FD0000647A
:104C2000FD000064FD000064CD000064FD00006430
:104C3000FD000064FD000064FD000064FD000064F0
:104C4000FD000064FD0000648100D800FCFFFC0052
:104C5000FCAAFC000001F9000010FC000224F40092
:0400000508004AADF8
:00000001FF
